{
  "contractName": "StandardToken",
  "abi": [
    {
      "constant": true,
      "inputs": [],
      "name": "totalSupply",
      "outputs": [
        {
          "name": "",
          "type": "uint256"
        }
      ],
      "payable": false,
      "stateMutability": "view",
      "type": "function"
    },
    {
      "constant": true,
      "inputs": [
        {
          "name": "_owner",
          "type": "address"
        }
      ],
      "name": "balanceOf",
      "outputs": [
        {
          "name": "",
          "type": "uint256"
        }
      ],
      "payable": false,
      "stateMutability": "view",
      "type": "function"
    },
    {
      "constant": false,
      "inputs": [
        {
          "name": "_to",
          "type": "address"
        },
        {
          "name": "_value",
          "type": "uint256"
        }
      ],
      "name": "transfer",
      "outputs": [
        {
          "name": "",
          "type": "bool"
        }
      ],
      "payable": false,
      "stateMutability": "nonpayable",
      "type": "function"
    },
    {
      "anonymous": false,
      "inputs": [
        {
          "indexed": true,
          "name": "owner",
          "type": "address"
        },
        {
          "indexed": true,
          "name": "spender",
          "type": "address"
        },
        {
          "indexed": false,
          "name": "value",
          "type": "uint256"
        }
      ],
      "name": "Approval",
      "type": "event"
    },
    {
      "anonymous": false,
      "inputs": [
        {
          "indexed": true,
          "name": "from",
          "type": "address"
        },
        {
          "indexed": true,
          "name": "to",
          "type": "address"
        },
        {
          "indexed": false,
          "name": "value",
          "type": "uint256"
        }
      ],
      "name": "Transfer",
      "type": "event"
    },
    {
      "constant": false,
      "inputs": [
        {
          "name": "_from",
          "type": "address"
        },
        {
          "name": "_to",
          "type": "address"
        },
        {
          "name": "_value",
          "type": "uint256"
        }
      ],
      "name": "transferFrom",
      "outputs": [
        {
          "name": "",
          "type": "bool"
        }
      ],
      "payable": false,
      "stateMutability": "nonpayable",
      "type": "function"
    },
    {
      "constant": false,
      "inputs": [
        {
          "name": "_spender",
          "type": "address"
        },
        {
          "name": "_value",
          "type": "uint256"
        }
      ],
      "name": "approve",
      "outputs": [
        {
          "name": "",
          "type": "bool"
        }
      ],
      "payable": false,
      "stateMutability": "nonpayable",
      "type": "function"
    },
    {
      "constant": true,
      "inputs": [
        {
          "name": "_owner",
          "type": "address"
        },
        {
          "name": "_spender",
          "type": "address"
        }
      ],
      "name": "allowance",
      "outputs": [
        {
          "name": "",
          "type": "uint256"
        }
      ],
      "payable": false,
      "stateMutability": "view",
      "type": "function"
    },
    {
      "constant": false,
      "inputs": [
        {
          "name": "_spender",
          "type": "address"
        },
        {
          "name": "_addedValue",
          "type": "uint256"
        }
      ],
      "name": "increaseApproval",
      "outputs": [
        {
          "name": "",
          "type": "bool"
        }
      ],
      "payable": false,
      "stateMutability": "nonpayable",
      "type": "function"
    },
    {
      "constant": false,
      "inputs": [
        {
          "name": "_spender",
          "type": "address"
        },
        {
          "name": "_subtractedValue",
          "type": "uint256"
        }
      ],
      "name": "decreaseApproval",
      "outputs": [
        {
          "name": "",
          "type": "bool"
        }
      ],
      "payable": false,
      "stateMutability": "nonpayable",
      "type": "function"
    }
  ],
  "bytecode": "0x608060405234801561001057600080fd5b50611037806100206000396000f30060806040526004361061008e576000357c0100000000000000000000000000000000000000000000000000000000900463ffffffff168063095ea7b31461009357806318160ddd146100f857806323b872dd1461012357806366188463146101a857806370a082311461020d578063a9059cbb14610264578063d73dd623146102c9578063dd62ed3e1461032e575b600080fd5b34801561009f57600080fd5b506100de600480360381019080803573ffffffffffffffffffffffffffffffffffffffff169060200190929190803590602001909291905050506103a5565b604051808215151515815260200191505060405180910390f35b34801561010457600080fd5b5061010d610497565b6040518082815260200191505060405180910390f35b34801561012f57600080fd5b5061018e600480360381019080803573ffffffffffffffffffffffffffffffffffffffff169060200190929190803573ffffffffffffffffffffffffffffffffffffffff169060200190929190803590602001909291905050506104a1565b604051808215151515815260200191505060405180910390f35b3480156101b457600080fd5b506101f3600480360381019080803573ffffffffffffffffffffffffffffffffffffffff1690602001909291908035906020019092919050505061085b565b604051808215151515815260200191505060405180910390f35b34801561021957600080fd5b5061024e600480360381019080803573ffffffffffffffffffffffffffffffffffffffff169060200190929190505050610aec565b6040518082815260200191505060405180910390f35b34801561027057600080fd5b506102af600480360381019080803573ffffffffffffffffffffffffffffffffffffffff16906020019092919080359060200190929190505050610b34565b604051808215151515815260200191505060405180910390f35b3480156102d557600080fd5b50610314600480360381019080803573ffffffffffffffffffffffffffffffffffffffff16906020019092919080359060200190929190505050610d53565b604051808215151515815260200191505060405180910390f35b34801561033a57600080fd5b5061038f600480360381019080803573ffffffffffffffffffffffffffffffffffffffff169060200190929190803573ffffffffffffffffffffffffffffffffffffffff169060200190929190505050610f4f565b6040518082815260200191505060405180910390f35b600081600260003373ffffffffffffffffffffffffffffffffffffffff1673ffffffffffffffffffffffffffffffffffffffff16815260200190815260200160002060008573ffffffffffffffffffffffffffffffffffffffff1673ffffffffffffffffffffffffffffffffffffffff168152602001908152602001600020819055508273ffffffffffffffffffffffffffffffffffffffff163373ffffffffffffffffffffffffffffffffffffffff167f8c5be1e5ebec7d5bd14f71427d1e84f3dd0314c0f7b2291e5b200ac8c7c3b925846040518082815260200191505060405180910390a36001905092915050565b6000600154905090565b60008073ffffffffffffffffffffffffffffffffffffffff168373ffffffffffffffffffffffffffffffffffffffff16141515156104de57600080fd5b6000808573ffffffffffffffffffffffffffffffffffffffff1673ffffffffffffffffffffffffffffffffffffffff16815260200190815260200160002054821115151561052b57600080fd5b600260008573ffffffffffffffffffffffffffffffffffffffff1673ffffffffffffffffffffffffffffffffffffffff16815260200190815260200160002060003373ffffffffffffffffffffffffffffffffffffffff1673ffffffffffffffffffffffffffffffffffffffff1681526020019081526020016000205482111515156105b657600080fd5b610607826000808773ffffffffffffffffffffffffffffffffffffffff1673ffffffffffffffffffffffffffffffffffffffff16815260200190815260200160002054610fd690919063ffffffff16565b6000808673ffffffffffffffffffffffffffffffffffffffff1673ffffffffffffffffffffffffffffffffffffffff1681526020019081526020016000208190555061069a826000808673ffffffffffffffffffffffffffffffffffffffff1673ffffffffffffffffffffffffffffffffffffffff16815260200190815260200160002054610fef90919063ffffffff16565b6000808573ffffffffffffffffffffffffffffffffffffffff1673ffffffffffffffffffffffffffffffffffffffff1681526020019081526020016000208190555061076b82600260008773ffffffffffffffffffffffffffffffffffffffff1673ffffffffffffffffffffffffffffffffffffffff16815260200190815260200160002060003373ffffffffffffffffffffffffffffffffffffffff1673ffffffffffffffffffffffffffffffffffffffff16815260200190815260200160002054610fd690919063ffffffff16565b600260008673ffffffffffffffffffffffffffffffffffffffff1673ffffffffffffffffffffffffffffffffffffffff16815260200190815260200160002060003373ffffffffffffffffffffffffffffffffffffffff1673ffffffffffffffffffffffffffffffffffffffff168152602001908152602001600020819055508273ffffffffffffffffffffffffffffffffffffffff168473ffffffffffffffffffffffffffffffffffffffff167fddf252ad1be2c89b69c2b068fc378daa952ba7f163c4a11628f55a4df523b3ef846040518082815260200191505060405180910390a3600190509392505050565b600080600260003373ffffffffffffffffffffffffffffffffffffffff1673ffffffffffffffffffffffffffffffffffffffff16815260200190815260200160002060008573ffffffffffffffffffffffffffffffffffffffff1673ffffffffffffffffffffffffffffffffffffffff1681526020019081526020016000205490508083111561096c576000600260003373ffffffffffffffffffffffffffffffffffffffff1673ffffffffffffffffffffffffffffffffffffffff16815260200190815260200160002060008673ffffffffffffffffffffffffffffffffffffffff1673ffffffffffffffffffffffffffffffffffffffff16815260200190815260200160002081905550610a00565b61097f8382610fd690919063ffffffff16565b600260003373ffffffffffffffffffffffffffffffffffffffff1673ffffffffffffffffffffffffffffffffffffffff16815260200190815260200160002060008673ffffffffffffffffffffffffffffffffffffffff1673ffffffffffffffffffffffffffffffffffffffff168152602001908152602001600020819055505b8373ffffffffffffffffffffffffffffffffffffffff163373ffffffffffffffffffffffffffffffffffffffff167f8c5be1e5ebec7d5bd14f71427d1e84f3dd0314c0f7b2291e5b200ac8c7c3b925600260003373ffffffffffffffffffffffffffffffffffffffff1673ffffffffffffffffffffffffffffffffffffffff16815260200190815260200160002060008873ffffffffffffffffffffffffffffffffffffffff1673ffffffffffffffffffffffffffffffffffffffff168152602001908152602001600020546040518082815260200191505060405180910390a3600191505092915050565b60008060008373ffffffffffffffffffffffffffffffffffffffff1673ffffffffffffffffffffffffffffffffffffffff168152602001908152602001600020549050919050565b60008073ffffffffffffffffffffffffffffffffffffffff168373ffffffffffffffffffffffffffffffffffffffff1614151515610b7157600080fd5b6000803373ffffffffffffffffffffffffffffffffffffffff1673ffffffffffffffffffffffffffffffffffffffff168152602001908152602001600020548211151515610bbe57600080fd5b610c0f826000803373ffffffffffffffffffffffffffffffffffffffff1673ffffffffffffffffffffffffffffffffffffffff16815260200190815260200160002054610fd690919063ffffffff16565b6000803373ffffffffffffffffffffffffffffffffffffffff1673ffffffffffffffffffffffffffffffffffffffff16815260200190815260200160002081905550610ca2826000808673ffffffffffffffffffffffffffffffffffffffff1673ffffffffffffffffffffffffffffffffffffffff16815260200190815260200160002054610fef90919063ffffffff16565b6000808573ffffffffffffffffffffffffffffffffffffffff1673ffffffffffffffffffffffffffffffffffffffff168152602001908152602001600020819055508273ffffffffffffffffffffffffffffffffffffffff163373ffffffffffffffffffffffffffffffffffffffff167fddf252ad1be2c89b69c2b068fc378daa952ba7f163c4a11628f55a4df523b3ef846040518082815260200191505060405180910390a36001905092915050565b6000610de482600260003373ffffffffffffffffffffffffffffffffffffffff1673ffffffffffffffffffffffffffffffffffffffff16815260200190815260200160002060008673ffffffffffffffffffffffffffffffffffffffff1673ffffffffffffffffffffffffffffffffffffffff16815260200190815260200160002054610fef90919063ffffffff16565b600260003373ffffffffffffffffffffffffffffffffffffffff1673ffffffffffffffffffffffffffffffffffffffff16815260200190815260200160002060008573ffffffffffffffffffffffffffffffffffffffff1673ffffffffffffffffffffffffffffffffffffffff168152602001908152602001600020819055508273ffffffffffffffffffffffffffffffffffffffff163373ffffffffffffffffffffffffffffffffffffffff167f8c5be1e5ebec7d5bd14f71427d1e84f3dd0314c0f7b2291e5b200ac8c7c3b925600260003373ffffffffffffffffffffffffffffffffffffffff1673ffffffffffffffffffffffffffffffffffffffff16815260200190815260200160002060008773ffffffffffffffffffffffffffffffffffffffff1673ffffffffffffffffffffffffffffffffffffffff168152602001908152602001600020546040518082815260200191505060405180910390a36001905092915050565b6000600260008473ffffffffffffffffffffffffffffffffffffffff1673ffffffffffffffffffffffffffffffffffffffff16815260200190815260200160002060008373ffffffffffffffffffffffffffffffffffffffff1673ffffffffffffffffffffffffffffffffffffffff16815260200190815260200160002054905092915050565b6000828211151515610fe457fe5b818303905092915050565b6000818301905082811015151561100257fe5b809050929150505600a165627a7a72305820d5d427886b34616484a6ff3265748135ab2f2c6b85d0e8ec12a89a6b4fbe4b100029",
  "source": "pragma solidity ^0.4.23;\n\nimport \"./BasicToken.sol\";\nimport \"./ERC20.sol\";\n\n\n/**\n * @title Standard ERC20 token\n *\n * @dev Implementation of the basic standard token.\n * @dev https://github.com/ethereum/EIPs/issues/20\n * @dev Based on code by FirstBlood: https://github.com/Firstbloodio/token/blob/master/smart_contract/FirstBloodToken.sol\n */\ncontract StandardToken is ERC20, BasicToken {\n\n  mapping (address => mapping (address => uint256)) internal allowed;\n\n\n  /**\n   * @dev Transfer tokens from one address to another\n   * @param _from address The address which you want to send tokens from\n   * @param _to address The address which you want to transfer to\n   * @param _value uint256 the amount of tokens to be transferred\n   */\n  function transferFrom(\n    address _from,\n    address _to,\n    uint256 _value\n  )\n    public\n    returns (bool)\n  {\n    require(_to != address(0));\n    require(_value <= balances[_from]);\n    require(_value <= allowed[_from][msg.sender]);\n\n    balances[_from] = balances[_from].sub(_value);\n    balances[_to] = balances[_to].add(_value);\n    allowed[_from][msg.sender] = allowed[_from][msg.sender].sub(_value);\n    emit Transfer(_from, _to, _value);\n    return true;\n  }\n\n  /**\n   * @dev Approve the passed address to spend the specified amount of tokens on behalf of msg.sender.\n   *\n   * Beware that changing an allowance with this method brings the risk that someone may use both the old\n   * and the new allowance by unfortunate transaction ordering. One possible solution to mitigate this\n   * race condition is to first reduce the spender's allowance to 0 and set the desired value afterwards:\n   * https://github.com/ethereum/EIPs/issues/20#issuecomment-263524729\n   * @param _spender The address which will spend the funds.\n   * @param _value The amount of tokens to be spent.\n   */\n  function approve(address _spender, uint256 _value) public returns (bool) {\n    allowed[msg.sender][_spender] = _value;\n    emit Approval(msg.sender, _spender, _value);\n    return true;\n  }\n\n  /**\n   * @dev Function to check the amount of tokens that an owner allowed to a spender.\n   * @param _owner address The address which owns the funds.\n   * @param _spender address The address which will spend the funds.\n   * @return A uint256 specifying the amount of tokens still available for the spender.\n   */\n  function allowance(\n    address _owner,\n    address _spender\n   )\n    public\n    view\n    returns (uint256)\n  {\n    return allowed[_owner][_spender];\n  }\n\n  /**\n   * @dev Increase the amount of tokens that an owner allowed to a spender.\n   *\n   * approve should be called when allowed[_spender] == 0. To increment\n   * allowed value is better to use this function to avoid 2 calls (and wait until\n   * the first transaction is mined)\n   * From MonolithDAO Token.sol\n   * @param _spender The address which will spend the funds.\n   * @param _addedValue The amount of tokens to increase the allowance by.\n   */\n  function increaseApproval(\n    address _spender,\n    uint _addedValue\n  )\n    public\n    returns (bool)\n  {\n    allowed[msg.sender][_spender] = (\n      allowed[msg.sender][_spender].add(_addedValue));\n    emit Approval(msg.sender, _spender, allowed[msg.sender][_spender]);\n    return true;\n  }\n\n  /**\n   * @dev Decrease the amount of tokens that an owner allowed to a spender.\n   *\n   * approve should be called when allowed[_spender] == 0. To decrement\n   * allowed value is better to use this function to avoid 2 calls (and wait until\n   * the first transaction is mined)\n   * From MonolithDAO Token.sol\n   * @param _spender The address which will spend the funds.\n   * @param _subtractedValue The amount of tokens to decrease the allowance by.\n   */\n  function decreaseApproval(\n    address _spender,\n    uint _subtractedValue\n  )\n    public\n    returns (bool)\n  {\n    uint oldValue = allowed[msg.sender][_spender];\n    if (_subtractedValue > oldValue) {\n      allowed[msg.sender][_spender] = 0;\n    } else {\n      allowed[msg.sender][_spender] = oldValue.sub(_subtractedValue);\n    }\n    emit Approval(msg.sender, _spender, allowed[msg.sender][_spender]);\n    return true;\n  }\n\n}\n",
  "sourcePath": "openzeppelin-solidity/contracts/token/ERC20/StandardToken.sol",
  "compiler": {
    "name": "solc",
    "version": "0.4.26+commit.4563c3fc.Emscripten.clang"
  },
  "schemaVersion": "3.4.4",
  "updatedAt": "2022-02-19T17:23:18.525Z",
  "devdoc": {
    "methods": {
      "allowance(address,address)": {
        "details": "Function to check the amount of tokens that an owner allowed to a spender.",
        "params": {
          "_owner": "address The address which owns the funds.",
          "_spender": "address The address which will spend the funds."
        },
        "return": "A uint256 specifying the amount of tokens still available for the spender."
      },
      "approve(address,uint256)": {
        "details": "Approve the passed address to spend the specified amount of tokens on behalf of msg.sender.   * Beware that changing an allowance with this method brings the risk that someone may use both the old and the new allowance by unfortunate transaction ordering. One possible solution to mitigate this race condition is to first reduce the spender's allowance to 0 and set the desired value afterwards: https://github.com/ethereum/EIPs/issues/20#issuecomment-263524729",
        "params": {
          "_spender": "The address which will spend the funds.",
          "_value": "The amount of tokens to be spent."
        }
      },
      "balanceOf(address)": {
        "details": "Gets the balance of the specified address.",
        "params": {
          "_owner": "The address to query the the balance of."
        },
        "return": "An uint256 representing the amount owned by the passed address."
      },
      "decreaseApproval(address,uint256)": {
        "details": "Decrease the amount of tokens that an owner allowed to a spender.   * approve should be called when allowed[_spender] == 0. To decrement allowed value is better to use this function to avoid 2 calls (and wait until the first transaction is mined) From MonolithDAO Token.sol",
        "params": {
          "_spender": "The address which will spend the funds.",
          "_subtractedValue": "The amount of tokens to decrease the allowance by."
        }
      },
      "increaseApproval(address,uint256)": {
        "details": "Increase the amount of tokens that an owner allowed to a spender.   * approve should be called when allowed[_spender] == 0. To increment allowed value is better to use this function to avoid 2 calls (and wait until the first transaction is mined) From MonolithDAO Token.sol",
        "params": {
          "_addedValue": "The amount of tokens to increase the allowance by.",
          "_spender": "The address which will spend the funds."
        }
      },
      "totalSupply()": {
        "details": "total number of tokens in existence"
      },
      "transfer(address,uint256)": {
        "details": "transfer token for a specified address",
        "params": {
          "_to": "The address to transfer to.",
          "_value": "The amount to be transferred."
        }
      },
      "transferFrom(address,address,uint256)": {
        "details": "Transfer tokens from one address to another",
        "params": {
          "_from": "address The address which you want to send tokens from",
          "_to": "address The address which you want to transfer to",
          "_value": "uint256 the amount of tokens to be transferred"
        }
      }
    },
    "title": "Standard ERC20 token"
  },
  "userdoc": {
    "methods": {}
  }
}